:080000000C942A000C9400008E
:100008000C9400000C9400000C9400000C94000068
:100018000C9400000C9400000C9400000C94000058
:100028000C9400000C9400000C9400000C94000048
:100038000C9400000C9400000C9400000C94000038
:100048000C9400000C9400000C940000F894EE2727
:10005800ECBBF1E0FBBFEBBFE5BF8DE0A2E0BB2747
:10006800ED938A95E9F780E094E0A0E6ED93019797
:10007800E9F7EFE5EDBFE4E0EEBFC0E6D1E00C94B0
:100088004500E2E8E1BBE4E0E2BB9198AEE1B0E014
:10009800FDD082990EC022970ED0F0E0E883F98354
:1000A800AEE1B0E0F3D0A881B981119709F4919A33
:1000B8002296ECCFFFCF1A930A9305E0E0E0EBBB62
:1000C800E5BBE4E0E2BBE0E0E8BBE0E7EABBE0E098
:1000D800EBBBE0EFE4BBE0E0E5BBE1B3EF70E1BB15
:1000E800E1B3E06BE1BBE2B3EF70E2BBE6E0E7BB94
:1000F800E0E0E8BB9798AC9AAD9A71D0DC9810E034
:1001080012308CF575D011F4AE9801C0AE9A76D045
:1001180011F4C19801C0C19A77D011F4949801C024
:10012800949A00FD02C0DD9801C0DD9A74D011F0E8
:10013800E0E052C096D09DD00E2EA0E0B39BA1E087
:1001480098D00E22A0E0869BA1E093D00E22A0E0DA
:10015800CF9BA1E08ED0E02111F0E0E03DC0EFE0C0
:100168000E271F5FCDCF05E03AD0DC9A10E01230A1
:100178008CF53ED011F4AF9801C0AF9A3FD011F47E
:10018800C29801C0C29A40D011F4959801C0959ABE
:1001980000FD02C0DE9801C0DE9A3DD011F0E0E01B
:1001A8001BC05FD0A03079F0A0E0B39BA1E0A030E5
:1001B80051F0A0E0869BA1E0A03029F0A0E0CF9B01
:1001C800A1E0A03009F402C0E0E006C0EFE00E278D
:1001D8001F5FCDCFAC98E1E0099119910895DD98A2
:1001E800DE9894989598AE98AF98C198C29808955B
:1001F800E02FE870F0E043D0E0300895E02FE4709D
:10020800F0E03FD0E0300895E02FE270F0E0F5959F
:10021800E795E0300895AD98AEE1B0E037D0A0E0C2
:10022800B09BA1E0EA2FEE0FEE0FEE0F0E2EA0E02E
:10023800B39BA1E0EA2FEE0FEE0F0E0EA0E0869B17
:10024800A1E0EA2FEE0FA02DAE0FE0E0CF9BE1E09A
:10025800AE0FE02FB0E0A7FDBFEFF0E0EA17FB0715
:100268000895AD9AAEE1B0E011D0A0E0B09BA1E056
:100278000895E0E0EA17E1E009F4EE270895F5951E
:10028800E795F595E795F595E7950895109639F072
:10029800A89580ED97E00197F1F71197C9F70895B0
:00000001FF
